:020000040800F2
:100000004073002065020008795400086D4E000816
:1000100075540008B10B00083166000800000000AC
:100020000000000000000000000000005156000821
:10003000390E000800000000F15400089556000831
:100040007F0200087F0200087F0200087F0200088C
:100050007F0200087F0200087F0200087F0200087C
:100060007F0200087F0200087F0200087F0200086C
:10007000410C00087F020008510C00087F020008B4
:100080007F0200087F0200087F0200087F0200084C
:10009000B50B0008C50B00087F0200087F020008AE
:1000A0007F0200087F0200087F0200087F0200082C
:1000B0007F0200087F0200087F0200087F0200081C
:1000C0007F0200087F0200087F0200087F0200080C
:1000D0007F020008016600087F0200081166000820
:1000E0007F0200087F0200087F0200087F020008EC
:1000F0007F0200087F0200087F0200087F020008DC
:100100007F0200087F0200087F0200087F020008CB
:100110007F0200087F0200088557000895570008F5
:100120007F020008610C0008710C00087F020008C3
:100130007F0200087F0200087F0200087F0200089B
:10014000D50B0008E50B00087F0200087F020008BD
:100150007F020008810C0008910C0008216600084D
:100160007F0200087F0200087F0200087F0200086B
:100170007F0200087F0200087F02000800000000E4
:100180007F0200087F02000800F002F800F05BF830
:1001900014A696E8000CB244B344DA4501D100F04D
:1001A00052F8BAE80F000FA696E83000A5EB040558
:1001B00004EB0607AAEB0704A7F101074FEA1515A0
:1001C0004FEA3414A4F10104AC4201D300F03BF82F
:1001D00013F0010F18BFFB1A43F0010300F001F800
:1001E000DBE7184704B1010024B10100103A24BF35
:1001F00078C878C1FAD8520724BF30C830C144BF8C
:1002000004680C6070470000704700000023002461
:1002100000250026103A28BF78C1FBD8520728BF16
:1002200030C148BF0B6070471FB519F01CFB9DE83B
:10023000030000F091FB00F0ADF91FBD10B50020E8
:1002400000F0BFFB10BD00F0FEFB1146FFF7ECFF16
:1002500015F0B8FC00F036FC03B4FFF7EFFF03BC69
:1002600000F050FB0948804709480047FEE7FEE7D9
:10027000FEE7FEE7FEE7FEE7FEE7FEE7FEE7FEE756
:1002800004480549054A064B7047000071570008AD
:1002900089010008406D002040730020406F00205D
:1002A000406F002053EA020C00F069802DE9F04B0A
:1002B0004FF00006002B1FBFB3FA83F503FA05F4D5
:1002C00024FA05F65E4012BF1643B2FA82F502FA2E
:1002D00005F4C5F120051EBF22FA05FC44EA0C0412
:1002E000203556EA044C4FEA144418BF641C4FF002
:1002F00000084FF00009904271EB030C39D300293C
:1003000019BFB1FA81F701FA07F6B0FA80F700FADF
:1003100007F6C7F120071EBF20FA07FC46EA0C06C5
:100320002037B6FBF4FCA7EB0507103F07F01F0BC7
:10033000CBF120062CFA06F60CFA0BFB44BFB346B1
:100340000026202FA4BF5E464FF0000B5BEA060C90
:1003500008BF4FF0010B19EB0B0948EB0608ABFB8C
:10036000027C06FB02CC0BFB03CCC01B71EB0C0127
:10037000C1E70B46024641464846BDE8F08B13B53F
:10038000084318BF4FF0FF300146AFF30080BDE8CF
:100390001C4070470B460146184600F0D4B910B512
:1003A000431C02E010F8011B71B18107FAD14FF034
:1003B000013202C88C1A8C4314EAC211F9D0C01A57
:1003C0000A0603D0C01E10BDC01A10BD0A0401D019
:1003D000801E10BD0902FCD0401E10BD032A40F251
:1003E000308010F0030C00F0158011F8013BBCF1D7
:1003F000020F624498BF11F801CB00F8013B38BFEF
:1004000011F8013BA2F1040298BF00F801CB38BFFC
:1004100000F8013B11F0030300F0AC81083AC0F092
:10042000088051F8043B083A51F804CBA0E80810C2
:10043000F5E7121D5CBF51F8043B40F8043BAFF3F5
:100440000080D20724BF11F8013B11F801CB48BF4F
:1004500011F8012B24BF00F8013B00F801CB48BF85
:1004600000F8012B7047431A28BF9A427FF6B6AFB7
:1004700010441144032A40F2268010F0030F1EBFDF
:1004800011F8013D521E00F8013D10F0030F7FF4FA
:10049000F6AF11F0030300F0B281083AC0F00B8010
:1004A00051F8043D083A51F804CD40F8043D40F8B5
:1004B00004CDFFF7F3BF121D5CBF51F8043D40F8B7
:1004C000043DAFF30080D20724BF11F8013D11F8BD
:1004D00001CD48BF11F8012C24BF00F8013D00F800
:1004E00001CD48BF00F8012C704702F0FF0343EA3A
:1004F000032242EA024200F024B84FF0000204292D
:10050000C0F0128010F0030C00F01B80CCF1040C42
:10051000BCF1020F18BF00F8012BA8BF20F8022B76
:10052000A1EB0C0100F00DB85FEAC17C24BF00F81C
:10053000012B00F8012B48BF00F8012B70474FF04A
:10054000000200B5134694469646203922BFA0E823
:100550000C50A0E80C50B1F12001BFF4F7AF09072F
:1005600028BFA0E80C5048BF0CC05DF804EB890020
:1005700028BF40F8042B08BF704748BF20F8022B63
:1005800011F0804F18BF00F8012B7047704770477B
:100590007047000008487CB57844009007487844CC
:1005A000009C0546019004E020460168084480470D
:1005B000241DAC42F8D17CBD6CAD01008AAD0100B8
:1005C00070B5064600F0A4F9056806F10B0020F0AE
:1005D0000704B4429CBF002070BD2B466A68BAB1C4
:1005E0001068A04210D304F1080188423CBF506853
:1005F000586007D35168101941601168091B0160E8
:1006000058601460101D70BD13465268002AE7D16F
:100610002146284600F08CF90028DED170BD70B567
:100620000446051F00F074F90068002C14BF4468EC
:1006300070BD002C18BFAC423CBF20466468F8D3A4
:1006400001680A18AA4218BF456003D12A68054606
:100650001144016028684119A1421CBF6C6070BD43
:100660006168696021680844286070BD2DE9F04721
:1006700091460C46804600F04BF90768604234EA28
:10068000000001D1042C02D20520BDE8F087601ED5
:1006900040F0070609F10B0020F007054D4539D958
:1006A0003B467A6882B31468101D404206EA000C8B
:1006B000644525D9A4EB0C00854221D8BCF1000F7C
:1006C0000BD0104601686244A1EB0C011160416837
:1006D0005160C0F800C058600346116805F1080079
:1006E000814205D35019491B0160156058600346CB
:1006F00052F8040F58600020C8F80020BDE8F087C9
:1007000013465268002ACED12946384600F010F927
:100710000028C5D10620BDE8F08710B500F000F92B
:10072000006810BD10B5044600F0FAF8046010BD72
:1007300010B5002000F066F9FFF780FDBDE810401D
:10074000012000F0DFB82DE9F041074615460E46BE
:100750001020FFF735FF04000AD06760C4E9026586
:1007600000F0DAF80168216004600020BDE8F08143
:100770000120FBE710B5203AC0F00B80B1E818501B
:10078000A0E81850B1E81850A0E81850203ABFF47B
:10079000F5AF5FEA027C24BFB1E81850A0E818501A
:1007A00044BF18C918C0BDE810405FEA827C24BF6E
:1007B00051F8043B40F8043B08BF7047D20728BFFC
:1007C00031F8023B48BF11F8012B28BF20F8023B4B
:1007D00048BF00F8012B7047431A28BF9A427FF6A2
:1007E000C9AF1044114410F0030F1EBF11F8013DB2
:1007F000521E00F8013D10F0030F7FF4F6AF103ADF
:10080000C0F00A8010B531E9185020E91850103AAC
:10081000BFF4F9AFBDE81040530724BF31E9081019
:1008200020E9081044BF51F8043D40F8043D12F09F
:10083000030F08BF7047D20728BF31F8023D48BFF9
:1008400011F8012C28BF20F8023D48BF00F8012C08
:10085000704700000000000030B44FF0013C50F839
:10086000042B51F8043BCCFA52F4D51A20D1FCB930
:1008700050F8042B51F8043BCCFA52F4D51A17D196
:10088000B4B950F8042B51F8043BCCFA52F4D51A01
:100890000ED16CB950F8042B51F8043BCCFA52F449
:1008A000D51A05D1002CDAD030BC4FF000007047CB
:1008B00029BAB1FA81F111F01801D1F12000844078
:1008C000F2D1CA40CB4012F0FF0213F0FF0330BC5C
:1008D000D01A704780E8FF1FC0F834D0C0F838E065
:1008E000C0F83CE04FF00000704700BF80EC200BE8
:1008F000704700BF80EC200B704700BFC0EC200B9E
:100900007047000001491820ABBEFEE72600020038
:1009100000487047480000200048704778000020D9
:10092000004870474000002070477047704770478C
:1009300038B504460A4600206946AFF30080002817
:1009400008BF38BD02460099204600F0A1F80120FA
:1009500038BD012000F0DCB8F8B5AFF300800546E3
:1009600000200C460C2000BF0646A819A0420DD955
:10097000324669460020AFF30080070008BF00F050
:10098000C7F80098A04218BF0546C419FFF7C0FF7A
:1009900005600746F01D20F007004619284600F0C4
:1009A0000AF8B44208BFF8BDA21B31463868BDE85A
:1009B000F84000F06DB800210160416070470C20E4
:1009C00070472DE9F0410646FFF7A6FF80464546F1
:1009D00013E016B1E068B0420ED120682860D4E977
:1009E0000101D8F8007088472046FFF718FED8F8B4
:1009F0000000B842EBD100E025462C68002CE8D17D
:100A0000BDE8F08110B500F06BF8BDE8104000F0D3
:100A100062B8000086469EE8FF1FDEF834D0DEF89C
:100A20003CE0704790EC200B704700BF90EC200B2F
:100A3000704700BFD0EC200B7047000000487047A3
:100A40004000002070477546FFF7F8FFAE460500EE
:100A50006946534620F00700854618B020B5FFF7D9
:100A60000FFCBDE820404FF000064FF000074FF0AC
:100A700000084FF0000BAC46ACE8C009ACE8C00978
:100A8000ACE8C009ACE8C00921F007018D46704709
:100A9000034640688C46002818BF88423CBF034686
:100AA0004068F8D318681844884207D00CF1030056
:100AB00020F00700001D411A521A0146081D0A6065
:100AC000FFF7ADBD10B50446AFF300802046BDE88A
:100AD0001040FFF7C1BB002801D0FFF713BF7047DC
:100AE00010B5002102A000F01AF8012010BD00008E
:100AF000534947414252543A2041626E6F726D61D0
:100B00006C207465726D696E6174696F6E000000AF
:100B100010B500F01DF8BDE81040FFF7DCBF70B560
:100B200005460C460A2000E06D1C00F039F835B18E
:100B300028780028F8D102E0641C00F031F814B1E4
:100B400020780028F8D1BDE870400A2000F028B8CD
:100B500010B5012805D0002103A0FFF7E0FF012018
:100B600010BD09A1F8E7000053494752544D454DC7
:100B70003A204F7574206F662068656170206D653E
:100B80006D6F7279000000003A2048656170206D39
:100B9000656D6F727920636F727275707465640031
:100BA00008B569468DF800000320ABBE08BD000003
:100BB000FFE7FEE780B541F24840C2F2000000F0D6
:100BC00049FC80BD80B541F24840C2F2000000F00F
:100BD00041FC80BD80B541F27040C2F2000000F0DF
:100BE00039FC80BD80B541F27040C2F2000000F0D7
:100BF00031FC80BD80B582B001904FF4FA7015F0E1
:100C00000FF842F27460C2F2000007F0DFF8FFE76D
:100C100042F27460C2F2000007F002F9022014F000
:100C2000FFFFF5E780B582B00190FFE740F2541076
:100C3000C2F2000006F074FA0A2014F0F1FFF5E7A2
:100C400080B541F25850C2F2000001F0B1F980BD08
:100C500080B541F2B850C2F2000001F0A9F980BDA0
:100C600080B541F21860C2F2000001F0A1F980BD28
:100C700080B541F29840C2F2000001F099F980BDC0
:100C800080B541F27860C2F2000001F091F980BDB8
:100C900080B541F2F840C2F2000001F089F980BD50
:100CA00082B001900198007810384AF6AB21CAF65C
:100CB000AA21A0FB01100009009000994AF234100B
:100CC000C0F60100405C0199C8650098042807D36C
:100CD000FFE701990868042262F30900886506E0CD
:100CE0000199086840F2FF3290438865FFE7019858
:100CF000806D02B07047000086B0059000208DF82E
:100D000013000598806A03900598806910BBFFE77F
:100D10000398029003281BD80299DFE801F0020D26
:100D20000218059890F82F00C00720B1FFE70120B6
:100D30008DF81300FFE70CE00598C06AB0F1C07FA2
:100D400004D1FFE701208DF81300FFE701E000E088
:100D5000FFE745E005988069B0F5005F25D1FFE722
:100D60000398019003281ED80199DFE801F00206DC
:100D7000021101208DF8130016E0059890F82F005D
:100D8000C00720B1FFE701208DF81300FFE70BE05B
:100D90000598C06AB0F1C07F04D1FFE701208DF84B
:100DA0001300FFE700E0FFE719E003980090032835
:100DB00004D3FFE70098032804D00EE001208DF84B
:100DC00013000BE0059890F82F00C00720B1FFE753
:100DD00001208DF81300FFE700E0FFE7FFE7FFE7E2
:100DE0009DF8130006B0704784B003900291019201
:100DF000009303980168086820F480200860009838
:100E000003990968486003988068402809D1FFE782
:100E10000198039909688860029803990968C86075
:100E200008E00298039909688860019803990968A5
:100E3000C860FFE704B070477047000080B540F21B
:100E40003410C2F200000DF04DF880BD72B6FFE71D
:100E5000FEE7000080B582B001904FF4FA7014F004
:100E6000DFFEFFE740F23410C2F200000DF014F88C
:100E7000012014F0D5FEF5E784B0029001910298AC
:100E800090F820008DF803009DF80300012805D09C
:100E9000FFE79DF8030002280AD1FFE7019A0298B4
:100EA000016848691043486100208DF80F0008E090
:100EB0000299486A40F48020486201208DF80F00B2
:100EC000FFE79DF80F0004B07047000088B006905F
:100ED000059104920393069890F820008DF807007E
:100EE00006980068806800900598806808B9FFE758
:100EF00000E0FFE79DF80700012806D0FFE79DF816
:100F00000700022840F08080FFE79DF803004007BB
:100F100000280CD4FFE79DF803000007002806D442
:100F2000FFE79DF80300C006002864D5FFE700989E
:100F3000C0F3016002900299012088400399086083
:100F40000598806868B9FFE705980168C06840EABD
:100F5000415006990968029A01EB0211C1F880011B
:100F60000EE005994A688868C96840EAC2000843EB
:100F700006990968029A01EB0211C1F88001FFE7A6
:100F80000598006906990968029A01EB0211C1F8F7
:100F900084010598007D01280CD1FFE706980068C0
:100FA000029900EB0111D1F8840140F48070C1F87E
:100FB0008401FFE70498406806990968029A01EBEA
:100FC0000211C1F88C010498006806990968029A18
:100FD00001EB0211C1F8880106980068029900EB44
:100FE0000111D1F8800140F00100C1F8800100201A
:100FF0008DF81F0011E00699486A40F4001048621D
:1010000001208DF81F0008E00699486A40F480200E
:10101000486201208DF81F00FFE79DF81F0008B00F
:101020007047000086B00490039104980068019016
:10103000049890F820008DF803009DF80300012823
:1010400006D0FFE79DF80300022840F0B080FFE7DC
:1010500046F20040C4F2000001900199D1F800026C
:1010600040F00100C1F800020199D1F8000220F41B
:101070007C50C1F800020398426A0199D1F800023D
:1010800040EA0220C1F800020398406900F01F0105
:10109000012088400290029A0199D1F81C029043E5
:1010A000C1F81C020398C069F0B9FFE7029A0199E0
:1010B000D1F80C029043C1F80C02039A9088D168D1
:1010C000526940EA0140019901EBC201C1F84002B6
:1010D000039A10889168526940EA0140019901EB36
:1010E000C201C1F84402FFE70398C06901281ED17C
:1010F000FFE7029A0199D1F80C021043C1F80C02E3
:10110000039A90881168526940EA0140019901EB05
:10111000C201C1F84002039A90899168526940EA7D
:101120000140019901EBC201C1F84402FFE70398B5
:10113000806940B9FFE7029A0199D1F8040290430F
:10114000C1F8040207E0029A0199D1F804021043A1
:10115000C1F80402FFE70398006940B9FFE7029A6B
:101160000199D1F814029043C1F8140207E0029AE1
:101170000199D1F814021043C1F81402FFE7039853
:10118000006A012808D1FFE7029A0199D1F81C02F0
:101190001043C1F81C02FFE70199D1F8000220F0CA
:1011A0000100C1F8000200208DF8170008E0049942
:1011B000486A40F48020486201208DF81700FFE75C
:1011C0009DF8170006B0704781B0009001B07047DD
:1011D00086B00490039102920193049890F8200045
:1011E0008DF803009DF80300012806D0FFE79DF865
:1011F0000300022840F0E880FFE7039880B9FFE78A
:1012000004980068C068800748B9FFE70499486AF5
:1012100040F40010486201208DF81700DDE00FE077
:10122000049800680069800748B9FFE70499486A94
:1012300040F40010486201208DF81700CDE0FFE770
:1012400004980068039900EB0110D0F8B00100F099
:101250000400029988600298806858B9FFE70498F2
:101260000068039900EB0110D0F8B001400D02991D
:1012700008600AE004980068039900EB0110D0F8B8
:10128000B001C00802994860FFE70498006803991C
:1012900000EB0110D0F8B00100F002000299C86024
:1012A00004980068039900EB0110D0F8B40100F035
:1012B0000F00082804D3FFE70299082008610BE01B
:1012C00004980068039900EB0110D0F8B40100F015
:1012D0000F0002990861FFE704980068039900EB8A
:1012E0000110D0F8B40180B2000A02998861049814
:1012F0000068039900EB0110D0F8B401000C0299CA
:10130000486104980068039900EB0110D0F8B80117
:101310000199087004980068039900EB0110D0F857
:10132000B801000A0199487004980068039900EB1D
:101330000110D0F8B801000C019988700498006879
:10134000039900EB0110D0F8B801000E0199C870A4
:1013500004980068039900EB0110D0F8BC010199D2
:10136000087104980068039900EB0110D0F8BC01E3
:10137000000A0199487104980068039900EB011074
:10138000D0F8BC01000C0199887104980068039999
:1013900000EB0110D0F8BC01000E0199C871039850
:1013A00038B9FFE704980168C86840F02000C860B9
:1013B00006E004980168086940F020000861FFE732
:1013C00000208DF8170008E00499486A40F4802056
:1013D000486201208DF81700FFE79DF8170006B05E
:1013E0007047000083B0029000200190029890F8AE
:1013F00020008DF803009DF80300012805D0FFE7C9
:101400009DF80300022822D1FFE702980068806857
:101410004001002804D5FFE7019801300190FFE763
:101420000298006880680001002804D5FFE7019851
:1014300001300190FFE7029800688068C000002832
:1014400004D5FFE7019801300190FFE7FFE701981D
:1014500003B0704780B58AB00990002008900998C1
:1014600000684069079009980068406806900998EC
:1014700000688068059009980068C0680490099821
:1014800000680069039009980068806902909DF8DF
:101490001C00C007002800F09480FFE79DF81400AE
:1014A000C00758B3FFE709980168012088609DF8DC
:1014B00014008007002804D5FFE7099800F0C8FC55
:1014C0001BE09DF814004007002805D5FFE70898A9
:1014D00040F4006008900FE09DF814000007002819
:1014E00005D5FFE7089840F48050089003E009987C
:1014F00000F0AAFCFFE7FFE7FFE7FFE79DF8150014
:10150000C00760B3FFE7099801684FF480708860F6
:101510009DF815008007002804D5FFE7099800F022
:101520009FFC1BE09DF815004007002805D5FFE74C
:10153000089840F4005008900FE09DF8150000074F
:10154000002805D5FFE7089840F48040089003E0A4
:10155000099800F081FCFFE7FFE7FFE7FFE79DF850
:101560001600C00760B3FFE7099801684FF48030A8
:1015700088609DF816008007002804D5FFE70998C9
:1015800000F076FC1BE09DF816004007002805D50A
:10159000FFE7089840F4004008900FE09DF816001F
:1015A0000007002805D5FFE7089840F48030089030
:1015B00003E0099800F058FCFFE7FFE7FFE7FFE7CB
:1015C000FFE79DF81C000007002810D5FFE79DF8F5
:1015D0001000C006002809D5FFE7089840F4007005
:1015E0000890099801681020C860FFE7FFE79DF8A0
:1015F0001C00400700280FD5FFE79DF810000007EA
:10160000002808D5FFE7099801680820C8600998F4
:1016100000F0E0FAFFE7FFE79DF81C0080070028D4
:101620000BD5FFE709980068C068800720B1FFE785
:10163000099800F0D3FAFFE7FFE79DF81C00400689
:10164000002810D5FFE79DF80C00C006002809D53A
:10165000FFE7089840F4806008900998016810201E
:101660000861FFE7FFE79DF81C00800600280FD502
:10167000FFE79DF80C000007002808D5FFE7099850
:10168000016808200861099800F08CFBFFE7FFE77C
:101690009DF81C00C00600280BD5FFE709980068DC
:1016A0000069800720B1FFE7099800F07FFBFFE7A2
:1016B000FFE79DF81E00800700280FD5FFE79DF883
:1016C0001800C006002808D5FFE709980168102017
:1016D0004860099800F06EFBFFE7FFE79DF81E00E9
:1016E000C00778B1FFE79DF818000007002808D56B
:1016F000FFE70998016808204860099800F0BCFBE2
:10170000FFE7FFE79DF81D000006002840F18D80EF
:10171000FFE79DF818004007002840F18180FFE7AF
:101720009DF81D00C00750B1FFE79DF80800C007F5
:1017300028B1FFE7089840F001000890FFE79DF806
:101740001D00800700280BD5FFE79DF808008007E3
:10175000002805D5FFE7089840F002000890FFE751
:101760009DF81D00400700280BD5FFE79DF80800F5
:101770004007002805D5FFE7089840F004000890CE
:10178000FFE79DF81D000007002848D5FFE79DF8FA
:10179000080010F0700F42D0FFE7029800F07000D0
:1017A00001460191102814D0FFE70198202815D098
:1017B000FFE70198302816D0FFE70198402817D09E
:1017C000FFE70198502818D0FFE70198602819D04A
:1017D0001DE0089840F00800089019E0089840F0D3
:1017E0001000089014E0089840F0200008900FE0E6
:1017F000089840F0400008900AE0089840F0800007
:10180000089005E0089840F48070089000E0FFE739
:1018100009980168886920F070008861FFE7FFE798
:101820000998016804204860FFE7089848B1FFE77D
:10183000089A0999486A104348620998FFF7C4FC5E
:10184000FFE70AB080BD000080B584B00290029826
:1018500020B9FFE701208DF80F00E0E0029890F832
:10186000200020B9FFE7029800F0DEF8FFE70298B9
:101870000168086840F00100086001F01FF801905D
:10188000FFE7029800684068C007A8B9FFE701F0C9
:1018900015F80199401A0B280DD3FFE70299486A01
:1018A00040F4003048620299052081F820000120B0
:1018B0008DF80F00B3E0E4E702980168086820F0B3
:1018C0000200086000F0FAFF0190FFE7029800684C
:1018D00040688007002815D5FFE700F0EFFF019969
:1018E000401A0B280DD3FFE70299486A40F40030F4
:1018F00048620299052081F8200001208DF80F0030
:101900008DE0E3E70298007E012807D1FFE7029807
:101910000168086840F08000086006E002980168ED
:10192000086820F080000860FFE70298407E0128E8
:1019300007D1FFE702980168086840F0400008609E
:1019400006E002980168086820F040000860FFE7A0
:101950000298807E012807D1FFE702980168086895
:1019600040F02000086006E002980168086820F056
:1019700020000860FFE70298C07E012807D1FFE73A
:1019800002980168086820F01000086006E00298DC
:101990000168086840F010000860FFE70298007FC7
:1019A000012807D1FFE702980168086840F00800A5
:1019B000086006E002980168086820F008000860E6
:1019C000FFE70298407F012807D1FFE702980168EE
:1019D000086840F00400086006E0029801680868A2
:1019E00020F004000860FFE7029B19685A689868B5
:1019F000D3F80CC040EA0C00D3F810C040EA0C0049
:101A00005B691843013A1043C8610299002048629B
:101A1000029A012182F820108DF80F00FFE79DF84F
:101A20000F0004B080BD000080B592B0119000207E
:101A300010900F900E900D900C901198006846F247
:101A40000041C4F20001884252D1FFE740F28C10FD
:101A5000C2F200000168013101600068012812D162
:101A6000FFE7FFE700200B9043F64000C4F20200BE
:101A7000016841F000710160006800F000700B9097
:101A80000B98FFE7FFE7FFE700200A9043F63000DE
:101A9000C4F20200016841F008010160006800F032
:101AA00008000A900A98FFE703200C9002210D918C
:101AB000002105910E910F900920109040F60040F2
:101AC000C4F202000CA900F01DFD059A1420049038
:101AD000114600F0D1FF049800F0C4FF059A1520CC
:101AE0000690052100F0C8FF069800F0BBFF6EE0ED
:101AF0001198006846F60001C4F20001884265D1E1
:101B0000FFE7FFE70020099043F64000C4F202001F
:101B1000016841F080610160006800F08060099018
:101B20000998FFE740F28C10C2F200000168013111
:101B300001600068012812D1FFE7FFE7002008904C
:101B400043F64000C4F20200016841F000710160F8
:101B5000006800F0007008900898FFE7FFE7FFE7D3
:101B60000020079043F63000C4F20200016841F003
:101B700002010160006800F0020007900798FFE78B
:101B800060200C9002200D90002002900E90032007
:101B90000F900920109040F20040C4F202000CA9FE
:101BA00000F0B0FC029A402000900521019100F065
:101BB00063FF009800F056FF0199029A41200390BC
:101BC00000F05AFF039800F04DFFFFE7FFE712B067
:101BD00080BD000081B0009001B0704770B5A4B026
:101BE0002390239840F28C52C2F2000240F2A85394
:101BF000C2F200030021FFF7EBFA239841F24841BB
:101C0000C2F20001884261D1FFE740F28C50C2F27B
:101C100000000690016842688368D0F80CC0D0F8D4
:101C200010E044692194CDF880E0CDF87CC01E938B
:101C30001D921C91806922901C991D9A1E9B1F98D1
:101C4000DDF880E0219C229D40F2A856C2F20006F9
:101C5000EC46CCF81060CCF80C50CCF80840CCF82E
:101C600004E0CCF8000040F25020C2F200000EF078
:101C70003DFA0698016842688368D0F80CC0D0F835
:101C800010E044691A94CDF864E0CDF860C0179371
:101C90001692159180691B901599169A179B1898A2
:101CA000DDF864E01A9C1B9DEC46CCF81060CCF883
:101CB0000C50CCF80840CCF804E0CCF8000040F21E
:101CC0008820C2F200000EF011FAFFE7239841F2DB
:101CD0007041C2F20001884261D1FFE740F28C50AE
:101CE000C2F200000590016842688368D0F80CC019
:101CF000D0F810E044691394CDF848E0CDF844C022
:101D000010930F920E91806914900E990F9A109B68
:101D10001198DDF848E0139C149D40F2A856C2F2D9
:101D20000006EC46CCF81060CCF80C50CCF808401B
:101D3000CCF804E0CCF8000041F2E800C2F2000068
:101D40000BF05EFB0598016842688368D0F80CC010
:101D5000D0F810E044690C94CDF82CE0CDF828C000
:101D600009930892079180690D900799089A099B39
:101D70000A98DDF82CE00C9C0D9DEC46CCF8106028
:101D8000CCF80C50CCF80840CCF804E0CCF80000BB
:101D900041F2C010C2F200000BF0F4FEFFE724B0E5
:101DA00070BD000081B0009001B0704781B000901C
:101DB00001B0704781B0009001B0704780B584B029
:101DC0000290029890F8200001282FD1FFE7029995
:101DD000022081F8200002980168086820F00100C4
:101DE000086000F06BFD0190FFE702980068406812
:101DF000C007A8B1FFE700F061FD0199401A0B2868
:101E00000DD3FFE70299486A40F400304862029916
:101E1000052081F8200001208DF80F000FE0E4E795
:101E20000299002048628DF80F0008E00299486A84
:101E300040F40020486201208DF80F00FFE79DF874
:101E40000F0004B080BD000081B0009001B0704769
:101E500081B0009001B0704781B0009001B0704730
:101E600081B0009001B0704781B0009001B0704720
:101E700081B0009001B0704781B0009001B0704710
:101E800080B584B002900298806D019000F016FD3C
:101E90000090029890F8350002280DD0FFE70299D3
:101EA00080204865FFE70299002081F83400FFE7B1
:101EB00001208DF80F0055E002980168086820F0B5
:101EC0001600086002980168486920F080004861A7
:101ED0000298006C20B9FFE70298806C38B1FFE7E8
:101EE00002980168086820F008000860FFE702987F
:101EF0000168086820F001000860FFE702980068A8
:101F00000068C007C8B1FFE700F0D8FC0099401A8C
:101F1000062811D3FFE70299202048650299032083
:101F200081F83500FFE70299002081F83400FFE7CF
:101F300003208DF80F0015E0E0E70298C16D3F2007
:101F40008840019988600299012081F83500FFE7F7
:101F50000299002081F83400FFE7FFE700208DF8A8
:101F60000F00FFE79DF80F0004B080BD82B0009025
:101F7000009890F83500022807D0FFE700998020EC
:101F8000486501208DF807000EE00099052081F8D2
:101F9000350000980168086820F001000860FFE73C
:101FA00000208DF80700FFE79DF8070002B070479A
:101FB00080B586B005900020039040F21400C2F274
:101FC0000000006848F2B511C1F64E31A0FB0110C7
:101FD000800A02900598806D019001980068049035
:101FE00004980599C96DC840000700281AD5FFE775
:101FF0000598006800684007002812D5FFE705989B
:102000000168086820F0040008600598C16D082088
:102010008840019988600599486D40F00100486545
:10202000FFE7FFE704980599C96DC840C007A0B154
:10203000FFE7059800684069000600280CD5FFE717
:102040000598C16D01208840019988600599486D07
:1020500040F002004865FFE7FFE704980599C96D65
:10206000C8404007002814D5FFE7059800680068BD
:10207000800700280CD5FFE70598C16D0420884033
:10208000019988600599486D40F004004865FFE7B4
:10209000FFE704980599C96DC840C006002847D5D8
:1020A000FFE7059800680068000700283FD5FFE7B4
:1020B0000598C16D102088400199886005980068D6
:1020C0000068400300281AD5FFE7059800680068FB
:1020D0000003002809D4FFE70598006C20B1FFE752
:1020E0000598016C8847FFE708E00598806C20B1EF
:1020F000FFE70598816C8847FFE7FFE716E0059842
:1021000000680068C005002807D4FFE7059801684B
:10211000086820F008000860FFE70598006C20B10F
:10212000FFE70598016C8847FFE7FFE7FFE7FFE758
:1021300004980599C96DC8408006002840F18D803B
:10214000FFE7059800680068C006002840F1848019
:10215000FFE70598C16D20208840019988600598A7
:1021600090F83500052834D1FFE705980168086824
:1021700020F01600086005980168486920F080008A
:1021800048610598006C20B9FFE70598806C38B16C
:10219000FFE705980168086820F008000860FFE77D
:1021A0000598C16D3F2088400199886005990120FC
:1021B00081F83500FFE70599002081F83400FFE73A
:1021C0000598006D20B1FFE70598016D8847FFE78E
:1021D0007BE0059800680068400300281AD5FFE7F7
:1021E0000598006800680003002809D4FFE70598F7
:1021F000406C20B1FFE70598416C8847FFE708E095
:102200000598C06B20B1FFE70598C16B8847FFE7D1
:10221000FFE720E0059800680068C005002811D499
:10222000FFE705980168086820F01000086005992C
:10223000012081F83500FFE70599002081F834007E
:10224000FFE7FFE70598C06B20B1FFE70598C16B7A
:102250008847FFE7FFE7FFE7FFE70598406DA0B37A
:10226000FFE70598406DC00730B3FFE705990520EB
:1022700081F8350005980168086820F001000860C1
:10228000FFE70398013003900299884201D9FFE7E4
:1022900007E0FFE7059800680068C0070028F0D154
:1022A000FFE70599012081F83500FFE70599002037
:1022B00081F83400FFE7FFE70598C06C20B1FFE725
:1022C0000598C16C8847FFE7FFE706B080BD0000B6
:1022D00080B586B004900020039000F0EFFA0290E1
:1022E000049820B9FFE701208DF81700A3E00498B7
:1022F000406A08B1FFE7FFE70499022081F8350042
:10230000FFE70499002081F83400FFE70498016892
:10231000086820F001000860FFE704980068006882
:10232000C00790B1FFE700F0C9FA0299401A0628E9
:102330000AD3FFE70499202048650499032081F817
:1023400035008DF8170076E0E7E70498006800682C
:102350000390039848F23F01CFF210010840039028
:10236000049900914868D1F808C0CB680A6940EA2E
:102370000C00184310434A6910438A691043CA6924
:102380001043096A01430398084303900498406A84
:10239000042808D1FFE70499C86A096B0143039830
:1023A00008430390FFE703980499096808600498BC
:1023B000006840690390039820F007000390049898
:1023C000416A0398084303900498406A04281AD18C
:1023D000FFE70498816A0398084303900498C06A51
:1023E00080B1FFE70498FEF787FC50B1FFE704993E
:1023F000402048650499012081F835008DF81700C8
:1024000019E0FFE7FFE70398049909684861049819
:10241000FEF746FC01900498C16D3F208840019969
:102420008860049900204865049A012182F83510DB
:102430008DF81700FFE79DF8170006B080BD00007B
:1024400080B588B0069005910492039300208DF822
:102450000B000698806D0190FFE7069890F8340015
:10246000012804D1FFE702208DF81F0045E00699FE
:10247000012081F83400FFE7FFE7069890F8350067
:1024800001282BD1FFE70699022081F83500069933
:102490000020486506980599049A039BFEF7A4FC62
:1024A0000698C16D3F2088400199886006980168B0
:1024B000086840F0160008600698006C38B1FFE725
:1024C00006980168086840F008000860FFE7069871
:1024D0000168086840F00100086009E0FFE706991C
:1024E000002081F83400FFE702208DF80B00FFE7A1
:1024F0009DF80B008DF81F00FFE79DF81F0008B046
:1025000080BD00008EB00D900C9100200A900990C3
:1025100008900B90FFE70B980F2800F2CC81FFE7A3
:102520000B99012088400A900C9800680A9908408D
:10253000099009980A99884240F0B881FFE70C9801
:10254000406800F00300012807D0FFE70C984068BE
:1025500000F0030002282FD1FFE70D988068089053
:102560000B984100032000FA01F108988843089075
:102570000C98C0680B99490000FA01F108980843CB
:10258000089008980D9988600D98406808900B99FC
:10259000012000FA01F10898884308900C984068DF
:1025A000C0F300100B9900FA01F108980843089055
:1025B00008980D994860FFE70C98406800F0030008
:1025C000032818D0FFE70D98C06808900B984100C9
:1025D000032000FA01F10898884308900C9880685D
:1025E0000B99490000FA01F10898084308900898EF
:1025F0000D99C860FFE70C98406800F003000228BE
:1026000026D1FFE70D980B996FF0030202EA510102
:102610000844006A08900B9800F0070081000F2022
:1026200000FA01F10898884308900C9800690B990A
:1026300001F00701890000FA01F1089808430890A9
:1026400008980D990B9B02EA530211440862FFE7B8
:102650000D98006808900B984100032000FA01F1E2
:102660000898884308900C98406800F003000B9984
:10267000490000FA01F108980843089008980D995C
:1026800008600C9880798007002800F00E81FFE731
:10269000FFE70020079043F64400C4F202000168FF
:1026A00041F480410160006800F480400790079881
:1026B000FFE70B9820F0030043F60801C4F2010184
:1026C000405808900B9800F0030081000F2000FA9A
:1026D00001F10898884308900D980021C4F2020186
:1026E000884203D1FFE7002006905EE00D9840F29B
:1026F0000041C4F20201884203D1FFE701200590A6
:1027000050E00D9840F60001C4F20201884203D166
:10271000FFE70220049042E00D9840F60041C4F229
:102720000201884203D1FFE70320039034E00D98B3
:1027300041F20001C4F20201884203D1FFE7042004
:10274000029026E00D9841F20041C4F20201884255
:1027500003D1FFE70520019018E00D9841F6000134
:10276000C4F20201884203D1FFE7062000900AE08C
:102770000D9941F60042C4F202020820914208BFBE
:1027800007200090FFE700980190FFE70198029072
:10279000FFE702980390FFE703980490FFE704988F
:1027A0000590FFE705980690FFE70698C0B20B99E1
:1027B00001F00301890000FA01F10898084308902C
:1027C00008980B9921F0030143F60802C4F20102B4
:1027D000885043F60840C4F2010000680890099947
:1027E0000898884308900C988079C006002805D581
:1027F000FFE70999089808430890FFE7089843F60F
:102800000841C4F20101086043F60C40C4F2010023
:102810000068089009990898884308900C98807976
:102820008006002805D5FFE7099908980843089015
:10283000FFE7089843F60C41C4F20101086043F633
:102840000440C4F201000068089009990898884380
:1028500008900C9880798007002805D5FFE7099932
:10286000089808430890FFE7089843F60441C4F22B
:102870000101086043F60040C4F2010000680890BE
:1028800009990898884308900C988079C00728B166
:10289000FFE70999089808430890FFE7089843F66E
:1028A0000041C4F201010860FFE7FFE7FFE70B9872
:1028B00001300B902FE60EB07047000046F25C50DE
:1028C000C2F200000068704740F23000C2F200001F
:1028D000027846F25C51C2F20001086810440860B8
:1028E0007047000080B543F60041C4F20201086859
:1028F00040F400700860086840F480600860086870
:1029000040F480700860032000F0D0F80F2000F041
:1029100005F800F07BF8002080BD000080B58CB089
:102920000B90002004900390FFE70020009043F6F6
:102930004000C4F20200016841F01001016000682B
:1029400000F0100000900098FFE706A802A900F030
:10295000E7F909980490049820B9FFE700F010FA0D
:10296000059004E000F00CFA40000590FFE70598A0
:102970004DF68361C4F21B31A0FB01014FF0FF3023
:1029800000EB9140039041F26870C2F2000041F206
:102990000001C4F20001016040F2E731C160039917
:1029A0004160002101618160816100F07BFE8DF852
:1029B00007009DF8070028BBFFE741F26870C2F2EC
:1029C000000000F079FF8DF807009DF80700C0B9FE
:1029D000FFE7362000F046F80B980F280CD8FFE7E9
:1029E0000B993620002200F047F80B9840F2340192
:1029F000C2F20001086003E001208DF80700FFE744
:102A0000FFE7FFE79DF807000CB080BD80B582B0FE
:102A1000FFE70020019043F64400C4F20200016881
:102A200041F480410160006800F480400190019809
:102A3000FFE7FFE70020009043F64000C4F20200E9
:102A4000016841F080510160006800F08050009002
:102A50000098FFE76FF001000F21002200F00CF852
:102A600002B080BD80B582B08DF807009DF90700E7
:102A700011F052FD02B080BD80B586B08DF8170010
:102A8000049103920020029011F05EFD02909DF9E6
:102A90001700019002980499039A02F0EFFC014696
:102AA000019811F059FD06B080BD000080B582B0DC
:102AB0000190019811F094FD02B080BD80B584B002
:102AC00002900191029820B9FFE701208DF80F00D4
:102AD00021E1019843F60041C4F20201096801F0C6
:102AE0000701884212D9FFE7019943F60040C4F27A
:102AF00002000170006800F007000199884204D0CC
:102B0000FFE701208DF80F0005E1FFE7029800784C
:102B1000800700282AD5FFE70298007840070028A0
:102B200009D5FFE743F60801C4F20201086840F442
:102B3000E0500860FFE7029800780007002809D5F8
:102B4000FFE743F60801C4F20201086840F4604060
:102B50000860FFE743F60801C4F20201086820F0AC
:102B6000F000029A926810430860FFE7029800782C
:102B7000C00700286ED0FFE702984068012811D1F5
:102B8000FFE743F60000C4F20200006800F40031E1
:102B90000020B0EB514F04D1FFE701208DF80F006A
:102BA000B9E02CE002984068022805D0FFE70298BF
:102BB0004068032811D1FFE743F60000C4F2020089
:102BC000006800F000710020B0EB516F04D1FFE706
:102BD00001208DF80F009EE010E043F60000C4F2E3
:102BE0000200006800F002010020B0EB510F04D198
:102BF000FFE701208DF80F008DE0FFE7FFE743F6C8
:102C00000801C4F20201086820F00300029A526829
:102C100010430860FFF752FE0090FFE743F60800FC
:102C2000C4F20200006800F00C0002994968B0EBA1
:102C3000810F0ED0FFE7FFF741FE0099401A41F2E5
:102C40008931884204D3FFE703208DF80F0062E04A
:102C5000E4E7FFE7019843F60041C4F20201096886
:102C600001F00701884212D2FFE7019943F60040C4
:102C7000C4F202000170006800F007000199884268
:102C800004D0FFE701208DF80F0044E0FFE7029831
:102C90000078400700280CD5FFE743F60801C4F28E
:102CA0000201086820F4E050029AD26810430860DC
:102CB000FFE702980078000700280DD5FFE743F6EC
:102CC0000801C4F20201086820F46040029A126907
:102CD00040EAC2000860FFE700F076F843F608011A
:102CE000C4F202010968C9B20A094AF21C11C0F60D
:102CF0000101895CC84040F21401C2F20001086081
:102D000040F23400C2F200000068FFF707FE002026
:102D10008DF80F00FFE79DF80F0004B080BD0000A4
:102D200082B00190009101990F20086043F60800DD
:102D3000C4F20200016801F00301019A51600168C8
:102D400001F0F001019A9160016801F4E051019AEB
:102D5000D160006800F46040C0080199086143F642
:102D60000040C4F20200006800F00700009908600B
:102D700002B0704740F21400C2F2000000687047D1
:102D800080B5FFF7F7FF43F60801C4F202010968B6
:102D9000C1F382224AF22C11C0F60101895CC840BD
:102DA00080BD000080B5FFF7E5FF43F60801C4F2DF
:102DB0000201096889B24A0B4AF22C11C0F60101DE
:102DC000895CC84080BD000080B586B000200590B9
:102DD00004900390029043F60800C4F202000068D9
:102DE00000F00C000146019140B1FFE70198042872
:102DF0000AD0FFE7019808280CD04FE042F20040CB
:102E0000C0F2F40002904FE041F60030C0F2B7008B
:102E1000029049E043F60400C4F20200016801F0A8
:102E20003F01059100684002002813D5FFE743F6F3
:102E30000400C4F202000068C0F3881041F60031BB
:102E4000C0F2B701A0FB0101059A0023FDF72AFAA1
:102E5000049012E043F60400C4F202000068C0F3DC
:102E6000881042F20041C0F2F401A0FB0101059A72
:102E70000023FDF717FA0490FFE743F60400C4F2BD
:102E80000200006800F44031022000EBD1300390D2
:102E900004980399B0FBF1F0029005E042F2004083
:102EA000C0F2F4000290FFE7029806B080BD000077
:102EB00080B586B00490049820B9FFE701208DF812
:102EC000170050E304980078C007002800F0A580A0
:102ED000FFE743F60800C4F20200006800F00C00AF
:102EE000042813D0FFE743F60800C4F2020000688C
:102EF00000F00C0008281ED1FFE743F60400C4F2DE
:102F0000020000684002002815D5FFE743F60000E4
:102F1000C4F20200006800F400310020B0EB514F11
:102F200008D0FFE70498406820B9FFE701208DF83A
:102F3000170018E370E0FFE704984068B0F5803FA1
:102F400009D1FFE743F60001C4F20201086840F42A
:102F50008030086020E004984068B0F5A02F0DD1C3
:102F6000FFE743F60001C4F20201086840F4802044
:102F70000860086840F4803008600CE043F6000107
:102F8000C4F20201086820F480300860086820F468
:102F900080200860FFE7FFE7FFE704984068E8B19A
:102FA000FFE7FFF78BFC0390FFE743F60000C4F256
:102FB0000200006800F400310020B0EB514F0CD14A
:102FC000FFE7FFF77BFC0399401A652804D3FFE76E
:102FD00003208DF81700C6E2E7E71CE0FFF76EFC60
:102FE0000390FFE743F60000C4F20200006800F41B
:102FF00000310020B0EB514F0CD0FFE7FFF75EFC33
:103000000399401A652804D3FFE703208DF81700C1
:10301000A9E2E7E7FFE7FFE7FFE70498007880070A
:10302000002840F19680FFE743F60800C4F2020052
:10303000006810F00C0F13D0FFE743F60800C4F24D
:103040000200006800F00C0008282CD1FFE743F6CE
:103050000400C4F2020000684002002823D4FFE705
:1030600043F60000C4F20200006800F002010020F4
:10307000B0EB510F09D0FFE70498C068012804D0D5
:10308000FFE701208DF817006DE243F60001C4F25E
:103090000201086820F0F800049A126940EAC200B0
:1030A0000860FFE754E00498C06870B3FFE70021B0
:1030B000C4F2472101200860FFF700FC0390FFE7FE
:1030C00043F60000C4F20200006800F00201002094
:1030D000B0EB510F0CD1FFE7FFF7F0FB0399401A5B
:1030E000032804D3FFE703208DF817003BE2E7E74E
:1030F00043F60001C4F20201086820F0F800049AC7
:10310000126940EAC200086021E00021C4F24721B0
:1031100000200860FFF7D2FB0390FFE743F60000B2
:10312000C4F20200006800F002010020B0EB510F71
:103130000CD0FFE7FFF7C2FB0399401A032804D322
:10314000FFE703208DF817000DE2E7E7FFE7FFE751
:10315000FFE704980078000700284BD5FFE70498A4
:10316000406918B3FFE740F68061C4F247210120AF
:103170000860FFF7A3FB0390FFE743F67400C4F277
:103180000200006800F002010020B0EB510F0CD1EA
:10319000FFE7FFF793FB0399401A032804D3FFE7E7
:1031A00003208DF81700DEE1E7E722E040F68061BA
:1031B000C4F2472100200860FFF780FB0390FFE77F
:1031C00043F67400C4F20200006800F0020100201F
:1031D000B0EB510F0CD0FFE7FFF770FB0399401ADB
:1031E000032804D3FFE703208DF81700BBE1E7E7CE
:1031F000FFE7FFE7049800784007002840F1CE8001
:10320000FFE700208DF8070043F64000C4F20200FB
:103210000068C000002815D4FFE7FFE700200090F9
:1032200043F64000C4F20200016841F080510160A1
:10323000006800F0805000900098FFE701208DF8B2
:103240000700FFE747F20000C4F200000068C00575
:10325000002822D4FFE747F20001C4F20001086809
:1032600040F480700860FFF729FB0390FFE747F206
:103270000000C4F200000068C00500280CD4FFE77D
:10328000FFF71CFB0399401A032804D3FFE7032030
:103290008DF8170067E1EAE7FFE7FFE70498806829
:1032A000012809D1FFE743F67001C4F20201086862
:1032B00040F0010008601FE00498806805280DD1E7
:1032C000FFE743F67001C4F20201086840F0040011
:1032D0000860086840F0010008600CE043F67001E7
:1032E000C4F20201086820F001000860086820F0BC
:1032F00004000860FFE7FFE7FFE704988068F8B183
:10330000FFE7FFF7DBFA0390FFE743F67000C4F234
:103310000200006800F002010020B0EB510F0ED156
:10332000FFE7FFF7CBFA0399401A41F2893188424F
:1033300004D3FFE703208DF8170014E1E5E71EE052
:10334000FFF7BCFA0390FFE743F67000C4F20200F7
:10335000006800F002010020B0EB510F0ED0FFE733
:10336000FFF7ACFA0399401A41F28931884204D33D
:10337000FFE703208DF81700F5E0E5E7FFE79DF88C
:103380000700012809D1FFE743F64001C4F202011A
:10339000086820F080500860FFE7FFE70498806924
:1033A000002800F0DC80FFE743F60800C4F20200CA
:1033B000006800F00C00082800F08580FFE7049802
:1033C000806902285CD1FFE76021C4F24721002018
:1033D0000860FFF773FA0390FFE743F60000C4F2BA
:1033E0000200006800F000710020B0EB516F0CD0BB
:1033F000FFE7FFF763FA0399401A032804D3FFE7B6
:1034000003208DF81700AEE0E7E70499C869D1F80A
:1034100020C04B6A8A6A40EA0C0040EA8310D2035B
:103420004FF6FF739A43A2F580321043C96A40EA0F
:10343000016043F60401C4F2020108606021C4F295
:10344000472101200860FFF739FA0390FFE743F6B0
:103450000000C4F20200006800F000710020B0EB30
:10346000516F0CD1FFE7FFF729FA0399401A03289F
:1034700004D3FFE703208DF8170074E0E7E721E0AD
:103480006021C4F2472100200860FFF717FA03907B
:10349000FFE743F60000C4F20200006800F000718C
:1034A0000020B0EB516F0CD0FFE7FFF707FA03994C
:1034B000401A032804D3FFE703208DF8170052E0D9
:1034C000E7E7FFE74AE004988069012804D1FFE7B5
:1034D00001208DF8170046E043F60400C4F2020014
:1034E0000068029004988069012831D0FFE70298B3
:1034F00000F480000499C969884229D1FFE7029845
:1035000000F03F000499096A884221D1FFE7029840
:1035100047F6C07108400499496AB0EB811F17D182
:10352000FFE7029800F440300499896AC9034FF616
:10353000FF729143A1F58031884209D1FFE70298DB
:1035400000F070600499C96AB0EB016F04D0FFE726
:1035500001208DF8170006E0FFE7FFE7FFE70020F6
:103560008DF81700FFE79DF8170006B080BD00003A
:1035700081B0009001B0704781B0009001B07047F9
:1035800085B003900291FFE7039890F83C00012872
:1035900004D1FFE702208DF813007EE0039901209B
:1035A00081F83C00FFE7FFE70399022081F83D0026
:1035B0000398006840680190039800688068009054
:1035C000019820F07000019002980168019808436A
:1035D00001900198039909684860039800680021E8
:1035E000C4F2010188423CD0FFE703980068B0F1C3
:1035F000804F36D0FFE70398006840F20041C4F2E4
:10360000000188422DD0FFE70398006840F60001D2
:10361000C4F20001884224D0FFE70398006840F616
:103620000041C4F2000188421BD0FFE70398006804
:1036300040F20041C4F20101884212D0FFE7039832
:10364000006844F20001C4F20101884209D0FFE79A
:103650000398006841F60001C4F2000188420ED1CF
:10366000FFE7009820F080000090029841680098E1
:10367000084300900098039909688860FFE7039960
:10368000012081F83D00FFE70399002081F83C000C
:10369000FFE700208DF81300FFE79DF8130005B049
:1036A0007047000080B582B00090009820B9FFE715
:1036B00001208DF807003FE0009890F83D0040B9E8
:1036C000FFE70099002081F83C00009800F038F8EE
:1036D000FFE70099022081F83D00009951F8040BA2
:1036E00002F060F80099012081F84600FFE7009998
:1036F000012081F83E00009981F83F00009981F88F
:103700004000009981F84100FFE7FFE700990120A0
:1037100081F84200009981F84300009981F8440043
:10372000009981F84500FFE70099012081F83D00EC
:1037300000208DF80700FFE79DF8070002B080BD6C
:1037400080B584B003900398006840F60041C4F24D
:103750000001884212D1FFE7FFE70020029043F604
:103760004000C4F20200016841F0080101600068F5
:1037700000F0080002900298FFE724E00398006838
:1037800041F20041C4F2000188421BD1FFE7FFE78C
:103790000020019043F64000C4F20200016841F0AD
:1037A00020010160006800F0200001900198FFE70F
:1037B0003720009001210022FFF75EF90098FFF703
:1037C00051F9FFE7FFE704B080BD000083B001902E
:1037D000019890F83D00012804D0FFE701208DF802
:1037E0000B0064E00199022081F83D000198006817
:1037F0000021C4F2010188423CD0FFE70198006833
:10380000B0F1804F36D0FFE70198006840F20041E8
:10381000C4F2000188422DD0FFE70198006840F60D
:103820000001C4F20001884224D0FFE7019800683B
:1038300040F60041C4F2000188421BD0FFE7019826
:10384000006840F20041C4F20101884212D0FFE753
:103850000198006844F20001C4F20101884209D0D5
:10386000FFE70198006841F60001C4F200018842B8
:1038700012D1FFE701980068806800F0070000900F
:103880000098062807D0FFE701980168086840F013
:1038900001000860FFE706E001980168086840F051
:1038A00001000860FFE700208DF80B00FFE79DF89E
:1038B0000B0003B07047000083B00190019890F8AE
:1038C0003D00012804D0FFE701208DF80B006AE0DD
:1038D0000199022081F83D0001980168C86840F014
:1038E0000100C860019800680021C4F2010188420B
:1038F0003CD0FFE701980068B0F1804F36D0FFE779
:103900000198006840F20041C4F2000188422DD0C5
:10391000FFE70198006840F60001C4F20001884208
:1039200024D0FFE70198006840F60041C4F200018E
:1039300088421BD0FFE70198006840F20041C4F2C2
:103940000101884212D0FFE70198006844F20001AB
:10395000C4F20101884209D0FFE70198006841F6EE
:103960000001C4F20001884212D1FFE7019800680B
:10397000806800F0070000900098062807D0FFE755
:1039800001980168086840F001000860FFE706E060
:1039900001980168086840F001000860FFE7002016
:1039A0008DF80B00FFE79DF80B0003B07047000097
:1039B00080B586B00490039100208DF80B00FFE7DE
:1039C000049890F83C00012804D1FFE702208DF80C
:1039D0001700ABE00499012081F83C00FFE7FFE706
:1039E0000499022081F83D000498006880680190E5
:1039F000019820F077000190019820F47F40019019
:103A0000019804990968886003980068009000286C
:103A100072D0FFE7009810286ED0FFE700982028AA
:103A20006AD0FFE70098302866D0FFE7009840286A
:103A300055D0FFE70098502837D0FFE7009860285E
:103A400040D0FFE7009870280BD0FFE70098B0F552
:103A5000805F05D0FFE70098B0F5005F16D052E018
:103A600055E004980068039B5A689968DB6801F088
:103A70008DFF0498006880680190019840F07700FD
:103A80000190019804990968886040E004980068F2
:103A9000039B5A689968DB6801F078FF0498016815
:103AA000886840F48040886031E004980068039A98
:103AB0005168D26802F056F904980068502101F06C
:103AC0007FFF24E004980068039A5168D26802F0EE
:103AD00071F904980068602101F072FF17E0049802
:103AE0000068039A5168D26802F03CF904980068B3
:103AF000402101F065FF0AE0049800680399096815
:103B000001F05EFF03E001208DF80B00FFE7049950
:103B1000012081F83D00FFE70499002081F83C0076
:103B2000FFE79DF80B008DF81700FFE79DF81700E1
:103B300006B080BD81B0009001B0704780B584B000
:103B4000039003980068C0680290039800680069B9
:103B500001909DF804008007002824D5FFE79DF818
:103B60000800800700281DD5FFE7039801686FF063
:103B700002000861039901200877039800688069B2
:103B8000800720B1FFE70398FFF7D4FF06E0039812
:103B900000F046F9039800F057FAFFE70399002078
:103BA0000877FFE7FFE79DF804004007002825D5C8
:103BB000FFE79DF80800400700281ED5FFE703989F
:103BC00001686FF0040008610399022008770398E8
:103BD0000068806910F4407F04D0FFE70398FFF786
:103BE000A9FF06E0039800F01BF9039800F02CFAF7
:103BF000FFE7039900200877FFE7FFE79DF804003F
:103C00000007002824D5FFE79DF8080000070028DA
:103C10001DD5FFE7039801686FF00800086103995C
:103C20000420087703980068C069800720B1FFE787
:103C30000398FFF77FFF06E0039800F0F1F8039880
:103C400000F002FAFFE7039900200877FFE7FFE79B
:103C50009DF80400C006002825D5FFE79DF8080060
:103C6000C00600281ED5FFE7039801686FF010001A
:103C7000086103990820087703980068C06910F468
:103C8000407F04D0FFE70398FFF754FF06E0039856
:103C900000F0C6F8039800F0D7F9FFE70399002079
:103CA0000877FFE7FFE79DF80400C00778B1FFE75A
:103CB0009DF80800C00748B1FFE7039801686FF05E
:103CC00001000861039800F0A9FAFFE7FFE79DF8FB
:103CD00004000006002810D5FFE79DF80800000644
:103CE000002809D5FFE7039801686FF0800008619C
:103CF0000398FFF73DFCFFE7FFE79DF8040040064F
:103D0000002810D5FFE79DF808004006002809D5D7
:103D1000FFE7039801686FF040000861039800F026
:103D20009BFAFFE7FFE79DF804008006002810D506
:103D3000FFE79DF808008006002809D5FFE70398F3
:103D400001686FF0200008610398FFF715FCFFE79A
:103D5000FFE704B080BD000080B588B00790002068
:103D6000069005900490039002900798006840F632
:103D70000001C4F20001884223D1FFE7FFE70020E1
:103D8000019043F63000C4F20200016841F00801DE
:103D90000160006800F0080001900198FFE74FF40F
:103DA000804002900220039001210491032105919B
:103DB000069040F60040C4F2020002A9FEF7A2FB02
:103DC0002BE00798006840F60041C4F200018842E9
:103DD00022D1FFE7FFE70020009043F63000C4F255
:103DE0000200016841F080010160006800F080007D
:103DF00000900098FFE74FF4E050029002200390FB
:103E0000002104910591069041F60040C4F20200A1
:103E100002A9FEF777FBFFE7FFE708B080BD0000CF
:103E200081B0009001B0704780B586B004900391D6
:103E3000029200208DF80700FFE7049890F83C00FC
:103E4000012804D1FFE702208DF8170089E00499CA
:103E5000012081F83C00FFE7FFE7029800900C2862
:103E600000F270800099DFE801F0076D6D6D206D44
:103E70006D6D3A6D6D6D530004980068039901F003
:103E8000B5FD04980168886940F0080088610498CD
:103E90000168886920F00400886103980269049829
:103EA000016888691043886150E0049800680399AC
:103EB00001F012FE04980168886940F4006088618E
:103EC00004980168886920F4806088610398026919
:103ED00004980168886940EA0220886136E0049805
:103EE0000068039901F072FE04980168C86940F007
:103EF0000800C86104980168C86920F00400C8611E
:103F00000398026904980168C8691043C8611DE0FC
:103F100004980068039901F0D3FE04980168C86909
:103F200040F40060C86104980168C86920F48060AA
:103F3000C8610398026904980168C86940EA0220D0
:103F4000C86103E001208DF80700FFE7FFE704994F
:103F5000002081F83C00FFE79DF807008DF817006E
:103F6000FFE79DF8170006B080BD000080B582B065
:103F70000090009820B9FFE701208DF807003FE08E
:103F8000009890F83D0040B9FFE70099002081F8C3
:103F90003C00009800F038F8FFE70099022081F813
:103FA0003D00009951F8040B01F0FCFB0099012041
:103FB00081F84600FFE70099012081F83E00009952
:103FC00081F83F00009981F84000009981F8410094
:103FD000FFE7FFE70099012081F84200009981F88E
:103FE0004300009981F84400009981F84500FFE7FB
:103FF0000099012081F83D0000208DF80700FFE7BF
:104000009DF8070002B080BD82B001900198006861
:1040100040F60001C4F20001884212D1FFE7FFE739
:104020000020009043F64000C4F20200016841F015
:1040300004010160006800F0040000900098FFE7B0
:10404000FFE702B07047000081B0009001B07047F8
:1040500080B58CB00A900991099828B9FFE70A98B1
:1040600090F83E0007901CE00998042805D1FFE76E
:104070000A9890F83F00069010E00998082805D1AA
:10408000FFE70A9890F84000059004E00A9890F83D
:1040900041000590FFE705980690FFE70698079016
:1040A000FFE70798012804D0FFE701208DF82F00D3
:1040B000AFE0099828B9FFE70A99022081F83E008D
:1040C0001EE00998042806D1FFE70A99022081F82A
:1040D0003F00049012E00998082806D1FFE70A99EA
:1040E000022081F84000039005E00A99022081F83F
:1040F00041000390FFE703980490FFE70498FFE76F
:104100000A98006809990122019201F023FC0198A4
:104110000A9909680022C4F20102914202900CD06F
:10412000FFE70A9800684FF60041CBF6FE7108449D
:10413000B0FA80F040090290FFE70298C00738B15A
:10414000FFE70A980168486C40F400404864FFE7C4
:104150000A9800680021C4F2010188423CD0FFE7C0
:104160000A980068B0F1804F36D0FFE70A980068DF
:1041700040F20041C4F2000188422DD0FFE70A98C6
:10418000006840F60001C4F20001884224D0FFE735
:104190000A98006840F60041C4F2000188421BD032
:1041A000FFE70A98006840F20041C4F2010188422A
:1041B00012D0FFE70A98006844F20001C4F201013E
:1041C000884209D0FFE70A98006841F60001C4F26E
:1041D0000001884212D1FFE70A980068806800F069
:1041E000070008900898062807D0FFE70A9801689A
:1041F000086840F001000860FFE706E00A980168DF
:10420000086840F001000860FFE700208DF82F00EB
:10421000FFE79DF82F000CB080BD000080B582B094
:1042200001900198006841F20001C4F20001884247
:1042300003D1FFE7FEF748FB0CE00198006841F26C
:104240000041C4F20001884203D1FFE7FCF7F6FD0C
:10425000FFE7FFE702B080BD81B0009001B070477A
:1042600080B586B004900391ADF80A20049890F8C8
:10427000420020284DD1FFE7039820B1FFE7BDF8A9
:104280000A0020B9FFE701208DF8170045E00499E6
:104290000120086304990020486304980399BDF83D
:1042A0000A2002F0ABF88DF809009DF8090058BB10
:1042B000FFE70498006B012821D1FFE7FFE700200A
:1042C00001900498006800680190049800684068B4
:1042D00001900198FFE7FFE7FFE70498006850E8C6
:1042E000030F40F010000090FFE700990498026867
:1042F00042E803100028F0D1FFE7FFE703E00120C8
:104300008DF80900FFE7FFE79DF809008DF8170019
:1043100003E002208DF81700FFE79DF8170006B0B4
:1043200080BD000080B582B00190ADF80210019907
:10433000BDF8022041F24810C2F2000009F000FB73
:1043400002B080BD81B0009001B0704780B592B0DE
:104350001190119800680068109011980068C0686A
:104360000F901198006840690E9000200D900C90FD
:10437000109800F00F000D900D9888B9FFE79DF898
:104380004000800600280AD5FFE79DF83C00800623
:10439000002804D5FFE7119801F0DCFEEAE1FFE711
:1043A0000D98002800F0C280FFE79DF83800C00794
:1043B00038B9FFE7BDF83C0010F4907F00F0B680FC
:1043C000FFE79DF84000C00758B1FFE79DF83D00AA
:1043D000C00730B1FFE71199486C40F00100486414
:1043E000FFE79DF84000400700280BD5FFE79DF848
:1043F0003800C00730B1FFE71199486C40F0020067
:104400004864FFE79DF84000800700280BD5FFE7D0
:104410009DF83800C00730B1FFE71199486C40F0B3
:1044200004004864FFE79DF840000007002811D50C
:10443000FFE79DF83C008006002805D4FFE79DF8C3
:104440003800C00730B1FFE71199486C40F0080010
:104450004864FFE71198406C002866D0FFE79DF89C
:104460004000800600280AD5FFE79DF83C00800642
:10447000002804D5FFE7119801F06CFEFFE71198C2
:1044800000684069C0F380100C901198406C0007E0
:10449000002804D4FFE70C9800283ED0FFE71198CD
:1044A00001F0DEFD119800684069400600282FD514
:1044B000FFE7FFE7FFE71198006850E8050F20F0DD
:1044C00040000B90FFE70B991198026842E8051035
:1044D0000028F0D1FFE7FFE71198C06B98B1FFE724
:1044E0001198C16B45F60960C0F600000865119887
:1044F000C06BFDF73BFD28B1FFE71198C06B016D64
:104500008847FFE703E01198FFF71CFFFFE703E090
:104510001198FFF717FFFFE706E01198FFF712FF6A
:10452000119900204864FFE7FFE723E11198006B31
:10453000012840F0FF80FFE79DF84000C0060028FA
:1045400040F1F880FFE79DF83C00C006002840F1EC
:10455000F180FFE7FFE700200A90119800680068EB
:104560000A901198006840680A900A98FFE711982D
:10457000006840694006002840F18280FFE71198FA
:10458000C06B00684068ADF82600BDF82600002822
:1045900075D0FFE7BDF826001199898D88426EDA43
:1045A000FFE7BDF826001199C8851198C06BC06956
:1045B000B0F5807F58D0FFE7FFE7FFE7119800686C
:1045C00050E8030F20F480700890FFE708991198D5
:1045D000026842E803100028F0D1FFE7FFE7FFE799
:1045E000FFE71198006850E8050F20F001000790E0
:1045F000FFE707991198026842E805100028F0D1FA
:10460000FFE7FFE7FFE7FFE71198006850E8050FB5
:1046100020F040000690FFE706991198026842E8F2
:1046200005100028F0D1FFE7FFE71199202081F85D
:104630004200119900200863FFE7FFE71198006826
:1046400050E8030F20F010000590FFE7059911983E
:10465000026842E803100028F0D1FFE7FFE7119855
:10466000C06BFDF70DFCFFE711990220486311981C
:10467000818DC28D891A89B2FFF754FEFFE779E078
:104680001199888DC98D401AADF812001198C08D0E
:1046900000284ED0FFE7BDF81200002849D0FFE700
:1046A000FFE7FFE71198006850E8030F20F49070CF
:1046B0000390FFE703991198026842E8031000286D
:1046C000F0D1FFE7FFE7FFE7FFE71198006850E848
:1046D000050F20F001000290FFE70299119802688F
:1046E00042E805100028F0D1FFE7FFE711992020EC
:1046F00081F84200119900200863FFE7FFE7119855
:10470000006850E8030F20F010000190FFE70199C6
:104710001198026842E803100028F0D1FFE7FFE794
:104720001199022048631198BDF81210FFF7FAFDA5
:10473000FFE71FE09DF84000000600280AD5FFE7CC
:104740009DF83C000006002804D5FFE7119801F011
:104750000DFF0FE09DF84000400600280AD5FFE756
:104760009DF83C004006002804D5FFE7119801F0B1
:10477000C1FCFFE712B080BD80B582B00090009808
:1047800020B9FFE701208DF8070040E0009880691C
:1047900008B1FFE700E0FFE7009890F8410040B95A
:1047A000FFE70099002081F84000009800F034F8FD
:1047B000FFE70099242081F8410000980168C8684B
:1047C00020F40050C860009801F07AFD009801685C
:1047D000086920F49040086100980168486920F059
:1047E0002A00486100980168C86840F40050C86019
:1047F000009900204864009A202182F84110009A14
:1048000082F84210009948638DF80700FFE79DF891
:10481000070002B080BD000080B59EB01D90002052
:104820001C901B901A90199018901D98006841F2E6
:104830000001C4F20101884240F0BB80FFE7FFE7BE
:104840000020179043F64400C4F20200016841F0D2
:1048500010010160006800F0100017901798FFE742
:10486000FFE70020169043F63000C4F20200016812
:1048700041F002010160006800F0020016901698F5
:10488000FFE7FFE70020159043F63000C4F2020076
:10489000016841F001010160006800F0010015901D
:1048A0001598FFE78020189002200B9019900020A7
:1048B0000F901A9003200C901B9007200D901C90D5
:1048C00040F20040C4F2020018A90E91FDF71AFE52
:1048D000DDF82CC00C9A0D980E990F9B4FF4007EBA
:1048E000CDF860E0CDF864C01A931B921C900020B4
:1048F000C4F20200FDF706FE0F9941F2F840C2F241
:104900000000109046F2B842C4F2020202604FF07A
:104910000062426040228260C1604FF480620261A6
:1049200041618161C16101624162FDF7D1FC18B151
:10493000FFE7FCF78BFAFFE7FFE71D9841F2F8412C
:10494000C2F2000181631D988863FFE741F298403D
:10495000C2F200000A9046F24041C4F20201016036
:104960004FF00061416000218160C1604FF48062BE
:10497000026141618161C16101624162FDF7A8FC90
:1049800018B1FFE7FCF762FAFFE7FFE71D9841F275
:104990009841C2F20001C1631D988863FFE725209A
:1049A000099005210022FEF767F80998FEF75AF8EA
:1049B00039E11D98006844F60001C4F20001884204
:1049C00040F09380FFE7FFE70020149043F640009B
:1049D000C4F20200016841F480210160006800F423
:1049E000802014901498FFE7FFE70020139043F60F
:1049F0003000C4F20200016841F004010160006867
:104A000000F0040013901398FFE74FF440601890F3
:104A100002201990002007901A9003201B90072075
:104A20001C9040F60000C4F2020018A9FDF76AFDD0
:104A3000079941F25850C2F20000089046F228024D
:104A4000C4F2020202604FF0006242608160C16005
:104A50004FF48062026141618161C1610162416222
:104A6000FDF736FC18B1FFE7FCF7F0F9FFE7FFE7C9
:104A70001D9841F25851C2F20001C1631D9888632C
:104A8000FFE741F2B850C2F20000069046F258012A
:104A9000C4F2020101604FF0006141604021816079
:104AA0000021C1604FF48062026141618161C16196
:104AB00001624162FDF70CFC18B1FFE7FCF7C6F993
:104AC000FFE7FFE71D9841F2B851C2F20001816390
:104AD0001D988863FFE72720059004210022FDF739
:104AE000CBFF0598FDF7BEFF9CE01D98006841F2E2
:104AF0000041C4F20101884240F09380FFE7FFE7E4
:104B00000020129043F64400C4F20200016841F014
:104B100020010160006800F0200012901298FFE769
:104B2000FFE70020119043F63000C4F20200016854
:104B300041F040010160006800F0400011901198C0
:104B4000FFE74FF484401890022019900020039052
:104B50001A9003201B9008201C9041F60000C4F21C
:104B6000020018A9FDF7CEFC039941F27860C2F269
:104B70000000049046F2A042C4F2020202604FF02C
:104B80002062426040228260C1604FF48062026114
:104B900041618161C16101624162FDF799FB18B118
:104BA000FFE7FCF753F9FFE7FFE71D9841F2786153
:104BB000C2F2000181631D988863FFE741F218602B
:104BC000C2F20000029046F22841C4F202010160E4
:104BD0004FF02061416000218160C1604FF480622C
:104BE000026141618161C16101624162FDF770FB57
:104BF00018B1FFE7FCF72AF9FFE7FFE71D9841F23C
:104C00001861C2F20001C1631D988863FFE7472065
:104C1000019004210022FDF72FFF0198FDF722FFEC
:104C2000FFE7FFE7FFE71EB080BD000080B584B05E
:104C300002900191ADF80220029890F842002028DD
:104C400017D1FFE7019820B1FFE7BDF8020020B9B6
:104C5000FFE701208DF80F000FE0029900200863A4
:104C600002980199BDF8022001F0C8FB8DF80F00F1
:104C700003E002208DF80F00FFE79DF80F0004B05D
:104C800080BD000080B584B002900191ADF8022093
:104C9000029890F84200202817D1FFE7019820B130
:104CA000FFE7BDF8020020B9FFE701208DF80F00F3
:104CB0000FE002990020086302980199BDF80220D4
:104CC00001F022FC8DF80F0003E002208DF80F00A8
:104CD000FFE79DF80F0004B080BD000080B582B0F2
:104CE0000190019940F25410C2F2000002F0C8F89D
:104CF000019805F0D9FA02B080BD000081B00090A3
:104D000001B0704780B586B004900391ADF80A20D9
:104D1000049890F8410020285DD1FFE7039820B166
:104D2000FFE7BDF80A0020B9FFE701208DF8170062
:104D300055E0039804990862BDF80A000499888434
:104D4000BDF80A000499C884049900204864049AB4
:104D5000212182F8411004998A6B45F6CD71C0F685
:104D60000001D16304998A6B46F24901C0F6000143
:104D7000116404998A6B45F62961C0F60001D1647B
:104D80000499896B086503A8019004980268806BF8
:104D9000019909680432BDF80A30FDF751FB049807
:104DA00001686FF040000860FFE7FFE704980068C3
:104DB00050E8050F40F080000090FFE7009904984C
:104DC000026842E805100028F0D1FFE7FFE7002065
:104DD0008DF8170003E002208DF81700FFE79DF81B
:104DE000170006B080BD000084B002900191ADF8BC
:104DF0000220029890F84100202826D1FFE7019870
:104E000020B1FFE7BDF8020020B9FFE701208DF8CF
:104E10000F001EE0019802990862BDF80200029995
:104E20008884BDF802000299C88402990020486471
:104E3000029A212182F8411002990A68D16841F052
:104E40008001D1608DF80F0003E002208DF80F0083
:104E5000FFE79DF80F0004B07047000081B000909C
:104E600001B0704781B0009001B07047FFE7FEE7E6
:104E700080B582B004200FF0FDFA01900AF0FCFA30
:104E8000019809F099F940F29011C2F20001012055
:104E9000087002B080BD000080B582B041F2484089
:104EA000C2F20000009046F20041C4F2000101602D
:104EB00006214160002101918160C1604FF44032C0
:104EC00002614FF480124261017641768176C176AB
:104ED00001774177FCF7B8FC18B1FFE7FBF7B6FFA5
:104EE000FFE702B080BD000080B582B041F27040A3
:104EF000C2F20000009046F60001C4F20001016019
:104F000006214160002101918160C1604FF440326F
:104F100002614FF480124261017641768176C1765A
:104F200001774177FCF790FC18B1FFE7FBF78EFFA4
:104F3000FFE702B080BD000080B58AB0FFE7002027
:104F4000099043F63000C4F20200016841F4800188
:104F50000160006800F4800009900998FFE7FFE70E
:104F60000020089043F63000C4F20200016841F4CA
:104F700000110160006800F4001008900898FFE735
:104F80000C2000900521059100220692FDF774FD8A
:104F90000098FDF767FD0599069A0E200190FDF730
:104FA0006BFD0198FDF75EFD0599069A3920029088
:104FB000FDF762FD0298FDF755FD0599069A3A2026
:104FC0000390FDF759FD0398FDF74CFD0599069AEE
:104FD00045200490FDF750FD0498FDF743FD059929
:104FE000069A46200790FDF747FD0798FDF73AFD22
:104FF0000AB080BD80B582B045F28560C0F6000081
:105000004AF6A002C0F601020021019110F070FEE4
:10501000019941F25822C2F20002106040F6F530C8
:10502000C0F600004AF65802C0F6010210F060FE19
:10503000019941F25022C2F20002106040F6254070
:10504000C0F600004AF67C02C0F6010210F050FEE5
:10505000019941F25422C2F20002106045F211603F
:10506000C0F600004AF6E802C0F6010210F040FE69
:10507000019942F2B852C2F20002106045F2555056
:10508000C0F600004AF60C12C0F6010210F030FE25
:10509000019942F2BC52C2F20002106040F6556023
:1050A000C0F600004AF6C402C0F6010210F020FE6D
:1050B00041F26421C2F20001086002B080BD00002C
:1050C00086B0FFE70020059043F63000C4F20200EE
:1050D000016841F002010160006800F002000590E3
:1050E0000598FFE7FFE70020049043F63000C4F284
:1050F0000200016841F040010160006800F04000DA
:1051000004900498FFE7FFE70020039043F6300087
:10511000C4F20200016841F001010160006800F082
:10512000010003900398FFE7FFE70020029043F699
:105130003000C4F20200016841F00801016000681B
:1051400000F0080002900298FFE7FFE700200190BE
:1051500043F63000C4F20200016841F0040101602E
:10516000006800F0040001900198FFE7FFE70020CD
:10517000009043F63000C4F20200016841F0800163
:105180000160006800F0800000900098FFE706B022
:105190007047000080B58EB0002100910D910C91F8
:1051A0000B910A910991089107910691059104913B
:1051B00003910291019141F2D860C2F2000040F6E1
:1051C0000002C4F200020260A722426081604FF632
:1051D000FF72C26001618161FEF7C8FE18B1FFE78E
:1051E000FBF734FEFFE700200890099041F2D860F9
:1051F000C2F2000008A9FEF7C3F918B1FFE7FBF7F8
:1052000025FEFFE7602001900020029003900590AA
:1052100041F2D860C2F2000001A90822FEF704FEA4
:1052200018B1FFE7FBF712FEFFE741F2D860C2F2C8
:105230000000FEF791FD0EB080BD000080B58EB07D
:10524000002100910D910C910B910A910991089107
:10525000079106910591049103910291019141F208
:105260002070C2F2000040F60042C4F20002026068
:10527000416081604FF6FF72C26001618161FEF79B
:1052800011FA18B1FFE7FBF7E1FDFFE74FF480509B
:105290000A9041F22070C2F200000AA9FEF788FBD2
:1052A00018B1FFE7FBF7D2FDFFE741F22070C2F231
:1052B0000000FEF75BFE18B1FFE7FBF7C7FDFFE755
:1052C00000200890099041F22070C2F2000008A965
:1052D000FEF756F918B1FFE7FBF7B8FDFFE76020CE
:1052E000019042F21070029000220392059241F266
:1052F0002070C2F2000001A9FEF796FD18B1FFE789
:10530000FBF7A4FDFFE741F22070C2F2000001A903
:105310000422FEF789FD18B1FFE7FBF797FDFFE7D1
:1053200041F22070C2F2000001A90822FEF77CFDC4
:1053300018B1FFE7FBF78AFDFFE741F22070C2F2E8
:105340000000FEF709FD0EB080BD000080B582B000
:1053500000210191009141F2B070C2F2000041F2CF
:105360000042C4F20002026053224260816040F2B7
:10537000E731C16080218161FEF794F918B1FFE740
:10538000FBF764FDFFE700200090019041F2B07050
:10539000C2F200006946FEF7F3F818B1FFE7FBF729
:1053A00055FDFFE702B080BD80B582B041F2F870D4
:1053B000C2F20000019041F20001C4F2010101605B
:1053C0004FF4E131416000218160C16001610C2234
:1053D00042618161C161FFF7CFF918B1FFE7FBF7C7
:1053E00035FDFFE702B080BD80B582B041F64000D8
:1053F000C2F20000019044F60001C4F20001016015
:1054000048F2A061C0F2010141604FF48051816017
:105410000021C1604FF4806202610C22426181610F
:10542000C161FFF7A9F918B1FFE7FBF70FFDFFE72F
:1054300002B080BD80B582B041F68800C2F20000A3
:10544000019041F20041C4F2010101604FF4E131E9
:10545000416000218160C16001610C224261816173
:10546000C161FFF789F918B1FFE7FBF7EFFCFFE730
:1054700002B080BDFFE7FEE7FFE7FEE788B00790D8
:1054800006910592079800F0070004900498C0F177
:105490000700052803D3FFE70420019004E00498E7
:1054A000C0F107000190FFE70198039004980430D1
:1054B000062803D8FFE70020009003E00498033893
:1054C0000090FFE70098029006980399012202FAE3
:1054D00001F101390840029B984005999A40013A30
:1054E0001140084308B070470000000000000000B1
:1054F000EFF30980BFF36F8F154B1A681EF0100F82
:1055000008BF20ED108A20E9F04F10602DE9090056
:105510004FF0500080F31188BFF34F8FBFF36F8FB0
:1055200012F084F84FF0000080F31188BDE8090004
:1055300019680868B0E8F04F1EF0100F08BFB0EC13
:10554000108A80F30988BFF36F8F704700BF00BFD8
:105550004021002080B586B005904FF4FA7010F01D
:105560005FFBFFE740F2C020C2F20000019000F5AF
:10557000947041F67851C2F2000140F25022C2F21A
:1055800000029FED1F0ADFED1F0A04F059FC01988D
:1055900041F63831C2F2000140F28822C2F2000224
:1055A0009FED190ADFED190A04F04AFC41F2682068
:1055B000C2F20000408900EE100AB8EEC00ABFEE49
:1055C000001A30EE010A8DED040A9DED040ABDEECD
:1055D000C00A10EE101A41F2C010C2F20000029090
:1055E00008F076FA029841F27041C2F200010122FD
:1055F000039208F0F9FA039810F012FBB2E700BF2B
:10560000E0FFBF39F1A23E3B666606393577D63DED
:1056100080B582B0019041F2E400C2F2000006F0D1
:1056200041FBFFE741F2E500C2F2000007F020FB7A
:1056300040F66420C2F2000006F00CFA012010F0DF
:10564000EFFAEFE70000000000000000000000009B
:10565000074B19680868B0E8F04F80F30988BFF37A
:105660006F8F4FF0000080F31188704700BF00BFBC
:105670004021002080B56FF0040000210EF08EFF65
:1056800080BD000080B582B00190FFE7012010F0DE
:10569000C7FAFBE780B54EF21000CEF200000068BA
:1056A00012F0A0FD012803D0FFE712F0CFF8FFE7CA
:1056B00080BD000080B594B008A83021FAF73FFF04
:1056C000002007900690059004900390FFE70020CB
:1056D000029043F64000C4F20200016841F080519C
:1056E0000160006800F0805002900298FFE7FFE739
:1056F0000020019047F20000C4F20000016841F46C
:1057000080410160006800F4804001900198FFE74B
:10571000012008904FF48030099002200E904FF441
:1057200080010F9106211091A8211191129004205F
:10573000139008A8FDF7BCFB18B1FFE7FBF786FB49
:10574000FFE70F20039002200490002005904FF403
:10575000A05006904FF48050079003A80521FDF754
:10576000ADF918B1FFE7FBF771FBFFE714B080BD9F
:105770004EF68851CEF20001086840F470000860CF
:105780007047000080B541F26870C2F20000FEF779
:10579000D5F980BD80B541F2B070C2F20000FEF7CD
:1057A000CDF980BD83B0029001910298006800900D
:1057B00002980021C4F20101884225D0FFE7029837
:1057C000B0F1804F20D0FFE7029840F20041C4F2D0
:1057D0000001884218D0FFE7029840F60001C4F2A9
:1057E0000001884210D0FFE7029840F60041C4F261
:1057F0000001884208D0FFE7029840F20041C4F25D
:10580000010188420AD1FFE7009820F07000009063
:1058100001984168009808430090FFE70298002132
:10582000C4F20101884255D0FFE70298B0F1804FE1
:1058300050D0FFE7029840F20041C4F200018842D4
:1058400048D0FFE7029840F60001C4F20001884208
:1058500040D0FFE7029840F60041C4F200018842C0
:1058600038D0FFE7029840F20041C4F201018842BB
:1058700030D0FFE7029844F20001C4F201018842EF
:1058800028D0FFE7029844F20041C4F201018842A7
:1058900020D0FFE7029844F60001C4F201018842DB
:1058A00018D0FFE7029841F60001C4F200018842D7
:1058B00010D0FFE7029841F60041C4F2000188428F
:1058C00008D0FFE7029842F20001C4F200018842CA
:1058D0000AD1FFE7009820F4407000900198C16859
:1058E000009808430090FFE7009820F0800001999D
:1058F00049690843009000980299086001988068FF
:105900000299C86201980068029988620298002191
:10591000C4F20101884208D0FFE7029840F200413A
:10592000C4F20101884205D1FFE70198006902999C
:105930000863FFE702990120486102980069C007E7
:1059400030B1FFE70299086920F001000861FFE724
:1059500003B0704784B0039002910192029800F066
:105960001F01012088400090009A0399086A904323
:1059700008620198029901F01F0100FA01F20399EF
:10598000086A1043086204B07047000085B00490B4
:10599000039102920193049880680090009820F48B
:1059A0007F40009003980299019A41EA0221014345
:1059B00000980843009000980499886005B07047EB
:1059C00083B002900191029880680090009820F0C6
:1059D0007000009001980099084340F00700009083
:1059E00000980299886003B07047000085B0049069
:1059F00003910498006A01900499086A20F001005C
:105A000008620498406800900498806902900298A7
:105A100020F070000290029820F00300029003989A
:105A20000168029808430290019820F0020001905A
:105A30000398816801980843019004980021C4F2FA
:105A40000101884208D0FFE7049840F20041C4F207
:105A5000010188420ED1FFE7019820F00800019073
:105A60000398C168019808430190019820F0040050
:105A70000190FFE704980021C4F20101884208D098
:105A8000FFE7049840F20041C4F20101884213D1BB
:105A9000FFE7009820F480700090009820F40070D8
:105AA0000090039841690098084300900398816929
:105AB000009808430090FFE7009804994860029816
:105AC000049988610398406804994863019804998F
:105AD000086205B07047000085B0049003910498F7
